{
  "contractName": "GradientToken",
  "abi": [
    {
      "anonymous": false,
      "inputs": [
        {
          "indexed": true,
          "internalType": "address",
          "name": "_owner",
          "type": "address"
        },
        {
          "indexed": true,
          "internalType": "address",
          "name": "_approved",
          "type": "address"
        },
        {
          "indexed": false,
          "internalType": "uint256",
          "name": "_tokenId",
          "type": "uint256"
        }
      ],
      "name": "Approval",
      "type": "event"
    },
    {
      "anonymous": false,
      "inputs": [
        {
          "indexed": true,
          "internalType": "address",
          "name": "_from",
          "type": "address"
        },
        {
          "indexed": true,
          "internalType": "address",
          "name": "_to",
          "type": "address"
        },
        {
          "indexed": false,
          "internalType": "uint256",
          "name": "_tokenId",
          "type": "uint256"
        }
      ],
      "name": "Transfer",
      "type": "event"
    },
    {
      "inputs": [
        {
          "internalType": "address",
          "name": "_to",
          "type": "address"
        },
        {
          "internalType": "uint256",
          "name": "_tokenId",
          "type": "uint256"
        }
      ],
      "name": "_mint",
      "outputs": [],
      "stateMutability": "nonpayable",
      "type": "function"
    },
    {
      "inputs": [
        {
          "internalType": "address",
          "name": "_owner",
          "type": "address"
        }
      ],
      "name": "balanceOf",
      "outputs": [
        {
          "internalType": "uint256",
          "name": "",
          "type": "uint256"
        }
      ],
      "stateMutability": "view",
      "type": "function"
    },
    {
      "inputs": [
        {
          "internalType": "uint256",
          "name": "",
          "type": "uint256"
        }
      ],
      "name": "gradients",
      "outputs": [
        {
          "internalType": "string",
          "name": "outer",
          "type": "string"
        },
        {
          "internalType": "string",
          "name": "inner",
          "type": "string"
        }
      ],
      "stateMutability": "view",
      "type": "function"
    },
    {
      "inputs": [],
      "name": "name",
      "outputs": [
        {
          "internalType": "string",
          "name": "",
          "type": "string"
        }
      ],
      "stateMutability": "view",
      "type": "function"
    },
    {
      "inputs": [],
      "name": "owner",
      "outputs": [
        {
          "internalType": "address",
          "name": "",
          "type": "address"
        }
      ],
      "stateMutability": "view",
      "type": "function"
    },
    {
      "inputs": [
        {
          "internalType": "uint256",
          "name": "_tokenId",
          "type": "uint256"
        }
      ],
      "name": "ownerOf",
      "outputs": [
        {
          "internalType": "address",
          "name": "",
          "type": "address"
        }
      ],
      "stateMutability": "view",
      "type": "function"
    },
    {
      "inputs": [],
      "name": "symbol",
      "outputs": [
        {
          "internalType": "string",
          "name": "",
          "type": "string"
        }
      ],
      "stateMutability": "view",
      "type": "function"
    },
    {
      "inputs": [
        {
          "internalType": "address",
          "name": "_owner",
          "type": "address"
        }
      ],
      "name": "tokensOf",
      "outputs": [
        {
          "internalType": "uint256[]",
          "name": "",
          "type": "uint256[]"
        }
      ],
      "stateMutability": "view",
      "type": "function"
    },
    {
      "inputs": [
        {
          "internalType": "string",
          "name": "_outer",
          "type": "string"
        },
        {
          "internalType": "string",
          "name": "_inner",
          "type": "string"
        }
      ],
      "name": "mint",
      "outputs": [],
      "stateMutability": "payable",
      "type": "function"
    },
    {
      "inputs": [
        {
          "internalType": "uint256",
          "name": "_gradientId",
          "type": "uint256"
        }
      ],
      "name": "getGradient",
      "outputs": [
        {
          "internalType": "string",
          "name": "outer",
          "type": "string"
        },
        {
          "internalType": "string",
          "name": "inner",
          "type": "string"
        }
      ],
      "stateMutability": "view",
      "type": "function"
    }
  ],
  "bytecode": "0x608060405234801561001057600080fd5b5033600260006101000a81548173ffffffffffffffffffffffffffffffffffffffff021916908373ffffffffffffffffffffffffffffffffffffffff160217905550611083806100616000396000f3fe6080604052600436106100915760003560e01c80638aa0fdad116100595780638aa0fdad146101a15780638da5cb5b146101bd57806395d89b41146101e8578063a7c5ecf614610213578063d927f09e1461025157610091565b806306fdde03146100965780634e6ec247146100c15780635a3f2672146100ea5780636352211e1461012757806370a0823114610164575b600080fd5b3480156100a257600080fd5b506100ab61028f565b6040516100b89190610ade565b60405180910390f35b3480156100cd57600080fd5b506100e860048036038101906100e39190610ba8565b6102c8565b005b3480156100f657600080fd5b50610111600480360381019061010c9190610be8565b61048e565b60405161011e9190610cd3565b60405180910390f35b34801561013357600080fd5b5061014e60048036038101906101499190610cf5565b610525565b60405161015b9190610d31565b60405180910390f35b34801561017057600080fd5b5061018b60048036038101906101869190610be8565b6105a0565b6040516101989190610d5b565b60405180910390f35b6101bb60048036038101906101b69190610eab565b6105ec565b005b3480156101c957600080fd5b506101d2610693565b6040516101df9190610d31565b60405180910390f35b3480156101f457600080fd5b506101fd6106b9565b60405161020a9190610ade565b60405180910390f35b34801561021f57600080fd5b5061023a60048036038101906102359190610cf5565b6106f2565b604051610248929190610f23565b60405180910390f35b34801561025d57600080fd5b5061027860048036038101906102739190610cf5565b610836565b604051610286929190610f23565b60405180910390f35b6040518060400160405280600d81526020017f4772616469656e74546f6b656e0000000000000000000000000000000000000081525081565b600073ffffffffffffffffffffffffffffffffffffffff168273ffffffffffffffffffffffffffffffffffffffff16141561030257600080fd5b600073ffffffffffffffffffffffffffffffffffffffff1660008083815260200190815260200160002060009054906101000a900473ffffffffffffffffffffffffffffffffffffffff1673ffffffffffffffffffffffffffffffffffffffff161461036d57600080fd5b8160008083815260200190815260200160002060006101000a81548173ffffffffffffffffffffffffffffffffffffffff021916908373ffffffffffffffffffffffffffffffffffffffff160217905550600160008373ffffffffffffffffffffffffffffffffffffffff1673ffffffffffffffffffffffffffffffffffffffff1681526020019081526020016000208190806001815401808255809150506001900390600052602060002001600090919091909150558173ffffffffffffffffffffffffffffffffffffffff16600073ffffffffffffffffffffffffffffffffffffffff167fddf252ad1be2c89b69c2b068fc378daa952ba7f163c4a11628f55a4df523b3ef836040516104829190610d5b565b60405180910390a35050565b6060600160008373ffffffffffffffffffffffffffffffffffffffff1673ffffffffffffffffffffffffffffffffffffffff16815260200190815260200160002080548060200260200160405190810160405280929190818152602001828054801561051957602002820191906000526020600020905b815481526020019060010190808311610505575b50505050509050919050565b60008060008084815260200190815260200160002060009054906101000a900473ffffffffffffffffffffffffffffffffffffffff169050600073ffffffffffffffffffffffffffffffffffffffff168173ffffffffffffffffffffffffffffffffffffffff16141561059757600080fd5b80915050919050565b6000600160008373ffffffffffffffffffffffffffffffffffffffff1673ffffffffffffffffffffffffffffffffffffffff168152602001908152602001600020805490509050919050565b600060405180604001604052808481526020018381525090506003819080600181540180825580915050600190039060005260206000209060020201600090919091909150600082015181600001908051906020019061064d9291906109a2565b50602082015181600101908051906020019061066a9291906109a2565b505050600060016003805490506106819190610f89565b905061068d33826102c8565b50505050565b600260009054906101000a900473ffffffffffffffffffffffffffffffffffffffff1681565b6040518060400160405280600481526020017f477261640000000000000000000000000000000000000000000000000000000081525081565b6003818154811061070257600080fd5b906000526020600020906002020160009150905080600001805461072590610fec565b80601f016020809104026020016040519081016040528092919081815260200182805461075190610fec565b801561079e5780601f106107735761010080835404028352916020019161079e565b820191906000526020600020905b81548152906001019060200180831161078157829003601f168201915b5050505050908060010180546107b390610fec565b80601f01602080910402602001604051908101604052809291908181526020018280546107df90610fec565b801561082c5780601f106108015761010080835404028352916020019161082c565b820191906000526020600020905b81548152906001019060200180831161080f57829003601f168201915b5050505050905082565b60608060006003848154811061084f5761084e61101e565b5b906000526020600020906002020160405180604001604052908160008201805461087890610fec565b80601f01602080910402602001604051908101604052809291908181526020018280546108a490610fec565b80156108f15780601f106108c6576101008083540402835291602001916108f1565b820191906000526020600020905b8154815290600101906020018083116108d457829003601f168201915b5050505050815260200160018201805461090a90610fec565b80601f016020809104026020016040519081016040528092919081815260200182805461093690610fec565b80156109835780601f1061095857610100808354040283529160200191610983565b820191906000526020600020905b81548152906001019060200180831161096657829003601f168201915b5050505050815250509050806000015192508060200151915050915091565b8280546109ae90610fec565b90600052602060002090601f0160209004810192826109d05760008555610a17565b82601f106109e957805160ff1916838001178555610a17565b82800160010185558215610a17579182015b82811115610a165782518255916020019190600101906109fb565b5b509050610a249190610a28565b5090565b5b80821115610a41576000816000905550600101610a29565b5090565b600081519050919050565b600082825260208201905092915050565b60005b83811015610a7f578082015181840152602081019050610a64565b83811115610a8e576000848401525b50505050565b6000601f19601f8301169050919050565b6000610ab082610a45565b610aba8185610a50565b9350610aca818560208601610a61565b610ad381610a94565b840191505092915050565b60006020820190508181036000830152610af88184610aa5565b905092915050565b6000604051905090565b600080fd5b600080fd5b600073ffffffffffffffffffffffffffffffffffffffff82169050919050565b6000610b3f82610b14565b9050919050565b610b4f81610b34565b8114610b5a57600080fd5b50565b600081359050610b6c81610b46565b92915050565b6000819050919050565b610b8581610b72565b8114610b9057600080fd5b50565b600081359050610ba281610b7c565b92915050565b60008060408385031215610bbf57610bbe610b0a565b5b6000610bcd85828601610b5d565b9250506020610bde85828601610b93565b9150509250929050565b600060208284031215610bfe57610bfd610b0a565b5b6000610c0c84828501610b5d565b91505092915050565b600081519050919050565b600082825260208201905092915050565b6000819050602082019050919050565b610c4a81610b72565b82525050565b6000610c5c8383610c41565b60208301905092915050565b6000602082019050919050565b6000610c8082610c15565b610c8a8185610c20565b9350610c9583610c31565b8060005b83811015610cc6578151610cad8882610c50565b9750610cb883610c68565b925050600181019050610c99565b5085935050505092915050565b60006020820190508181036000830152610ced8184610c75565b905092915050565b600060208284031215610d0b57610d0a610b0a565b5b6000610d1984828501610b93565b91505092915050565b610d2b81610b34565b82525050565b6000602082019050610d466000830184610d22565b92915050565b610d5581610b72565b82525050565b6000602082019050610d706000830184610d4c565b92915050565b600080fd5b600080fd5b7f4e487b7100000000000000000000000000000000000000000000000000000000600052604160045260246000fd5b610db882610a94565b810181811067ffffffffffffffff82111715610dd757610dd6610d80565b5b80604052505050565b6000610dea610b00565b9050610df68282610daf565b919050565b600067ffffffffffffffff821115610e1657610e15610d80565b5b610e1f82610a94565b9050602081019050919050565b82818337600083830152505050565b6000610e4e610e4984610dfb565b610de0565b905082815260208101848484011115610e6a57610e69610d7b565b5b610e75848285610e2c565b509392505050565b600082601f830112610e9257610e91610d76565b5b8135610ea2848260208601610e3b565b91505092915050565b60008060408385031215610ec257610ec1610b0a565b5b600083013567ffffffffffffffff811115610ee057610edf610b0f565b5b610eec85828601610e7d565b925050602083013567ffffffffffffffff811115610f0d57610f0c610b0f565b5b610f1985828601610e7d565b9150509250929050565b60006040820190508181036000830152610f3d8185610aa5565b90508181036020830152610f518184610aa5565b90509392505050565b7f4e487b7100000000000000000000000000000000000000000000000000000000600052601160045260246000fd5b6000610f9482610b72565b9150610f9f83610b72565b925082821015610fb257610fb1610f5a565b5b828203905092915050565b7f4e487b7100000000000000000000000000000000000000000000000000000000600052602260045260246000fd5b6000600282049050600182168061100457607f821691505b6020821081141561101857611017610fbd565b5b50919050565b7f4e487b7100000000000000000000000000000000000000000000000000000000600052603260045260246000fdfea2646970667358221220f02085d9bf67be12a3fbb31fd8f2371ac6629212b44051cd73a84143752590c164736f6c634300080b0033",
  "immutableReferences": {},
  "source": "// SPDX-License-Identifier: MIT\npragma solidity >=0.4.23 <0.9.0;\n\nimport \"./ERC721Token.sol\";\nimport \"./Ownable.sol\";\n\ncontract GradientToken is ERC721Token, Ownable{\n\n    string public constant name = \"GradientToken\";\n    string public constant symbol =\"Grad\";\n\n    struct Gradient{\n         string outer;\n         string inner;\n\n    }\n\n    Gradient[] public gradients;\n\n    function mint(string memory _outer, string memory _inner) public payable{\n  \n            Gradient memory _gradient = Gradient({outer: _outer , inner: _inner});\n            gradients.push(_gradient);\n            uint _gradientId = gradients.length -1;\n            _mint(msg.sender, _gradientId);\n\n\n    }\n\n\n   function getGradient(uint _gradientId) public view returns(string memory outer, string memory inner){\n\n              Gradient memory _grad = gradients[_gradientId];\n\n              outer = _grad.outer;\n              inner = _grad.inner;\n\n   }\n\n          \n\n\n}",
  "sourcePath": "D:\\Ethereum\\ERC721_SmartContract_Final_Tutorial\\contracts\\GradientToken.sol",
  "compiler": {
    "name": "solc",
    "version": "0.8.11+commit.d7f03943.Emscripten.clang"
  },
  "schemaVersion": "3.4.4",
  "updatedAt": "2022-02-07T13:41:49.158Z",
  "devdoc": {
    "kind": "dev",
    "methods": {},
    "version": 1
  },
  "userdoc": {
    "kind": "user",
    "methods": {},
    "version": 1
  }
}