{
  "contractName": "ERC721Token",
  "abi": [
    {
      "anonymous": false,
      "inputs": [
        {
          "indexed": true,
          "internalType": "address",
          "name": "_owner",
          "type": "address"
        },
        {
          "indexed": true,
          "internalType": "address",
          "name": "_approved",
          "type": "address"
        },
        {
          "indexed": false,
          "internalType": "uint256",
          "name": "_tokenId",
          "type": "uint256"
        }
      ],
      "name": "Approval",
      "type": "event"
    },
    {
      "anonymous": false,
      "inputs": [
        {
          "indexed": true,
          "internalType": "address",
          "name": "_from",
          "type": "address"
        },
        {
          "indexed": true,
          "internalType": "address",
          "name": "_to",
          "type": "address"
        },
        {
          "indexed": false,
          "internalType": "uint256",
          "name": "_tokenId",
          "type": "uint256"
        }
      ],
      "name": "Transfer",
      "type": "event"
    },
    {
      "inputs": [
        {
          "internalType": "address",
          "name": "_to",
          "type": "address"
        },
        {
          "internalType": "uint256",
          "name": "_tokenId",
          "type": "uint256"
        }
      ],
      "name": "_mint",
      "outputs": [],
      "stateMutability": "nonpayable",
      "type": "function"
    },
    {
      "inputs": [
        {
          "internalType": "uint256",
          "name": "_tokenId",
          "type": "uint256"
        }
      ],
      "name": "ownerOf",
      "outputs": [
        {
          "internalType": "address",
          "name": "",
          "type": "address"
        }
      ],
      "stateMutability": "view",
      "type": "function"
    },
    {
      "inputs": [
        {
          "internalType": "address",
          "name": "_owner",
          "type": "address"
        }
      ],
      "name": "balanceOf",
      "outputs": [
        {
          "internalType": "uint256",
          "name": "",
          "type": "uint256"
        }
      ],
      "stateMutability": "view",
      "type": "function"
    },
    {
      "inputs": [
        {
          "internalType": "address",
          "name": "_owner",
          "type": "address"
        }
      ],
      "name": "tokensOf",
      "outputs": [
        {
          "internalType": "uint256[]",
          "name": "",
          "type": "uint256[]"
        }
      ],
      "stateMutability": "view",
      "type": "function"
    }
  ],
  "bytecode": "0x608060405234801561001057600080fd5b506106be806100206000396000f3fe608060405234801561001057600080fd5b506004361061004c5760003560e01c80634e6ec247146100515780635a3f26721461006d5780636352211e1461009d57806370a08231146100cd575b600080fd5b61006b600480360381019061006691906104ba565b6100fd565b005b610087600480360381019061008291906104fa565b6102c3565b60405161009491906105e5565b60405180910390f35b6100b760048036038101906100b29190610607565b61035a565b6040516100c49190610643565b60405180910390f35b6100e760048036038101906100e291906104fa565b6103d5565b6040516100f4919061066d565b60405180910390f35b600073ffffffffffffffffffffffffffffffffffffffff168273ffffffffffffffffffffffffffffffffffffffff16141561013757600080fd5b600073ffffffffffffffffffffffffffffffffffffffff1660008083815260200190815260200160002060009054906101000a900473ffffffffffffffffffffffffffffffffffffffff1673ffffffffffffffffffffffffffffffffffffffff16146101a257600080fd5b8160008083815260200190815260200160002060006101000a81548173ffffffffffffffffffffffffffffffffffffffff021916908373ffffffffffffffffffffffffffffffffffffffff160217905550600160008373ffffffffffffffffffffffffffffffffffffffff1673ffffffffffffffffffffffffffffffffffffffff1681526020019081526020016000208190806001815401808255809150506001900390600052602060002001600090919091909150558173ffffffffffffffffffffffffffffffffffffffff16600073ffffffffffffffffffffffffffffffffffffffff167fddf252ad1be2c89b69c2b068fc378daa952ba7f163c4a11628f55a4df523b3ef836040516102b7919061066d565b60405180910390a35050565b6060600160008373ffffffffffffffffffffffffffffffffffffffff1673ffffffffffffffffffffffffffffffffffffffff16815260200190815260200160002080548060200260200160405190810160405280929190818152602001828054801561034e57602002820191906000526020600020905b81548152602001906001019080831161033a575b50505050509050919050565b60008060008084815260200190815260200160002060009054906101000a900473ffffffffffffffffffffffffffffffffffffffff169050600073ffffffffffffffffffffffffffffffffffffffff168173ffffffffffffffffffffffffffffffffffffffff1614156103cc57600080fd5b80915050919050565b6000600160008373ffffffffffffffffffffffffffffffffffffffff1673ffffffffffffffffffffffffffffffffffffffff168152602001908152602001600020805490509050919050565b600080fd5b600073ffffffffffffffffffffffffffffffffffffffff82169050919050565b600061045182610426565b9050919050565b61046181610446565b811461046c57600080fd5b50565b60008135905061047e81610458565b92915050565b6000819050919050565b61049781610484565b81146104a257600080fd5b50565b6000813590506104b48161048e565b92915050565b600080604083850312156104d1576104d0610421565b5b60006104df8582860161046f565b92505060206104f0858286016104a5565b9150509250929050565b6000602082840312156105105761050f610421565b5b600061051e8482850161046f565b91505092915050565b600081519050919050565b600082825260208201905092915050565b6000819050602082019050919050565b61055c81610484565b82525050565b600061056e8383610553565b60208301905092915050565b6000602082019050919050565b600061059282610527565b61059c8185610532565b93506105a783610543565b8060005b838110156105d85781516105bf8882610562565b97506105ca8361057a565b9250506001810190506105ab565b5085935050505092915050565b600060208201905081810360008301526105ff8184610587565b905092915050565b60006020828403121561061d5761061c610421565b5b600061062b848285016104a5565b91505092915050565b61063d81610446565b82525050565b60006020820190506106586000830184610634565b92915050565b61066781610484565b82525050565b6000602082019050610682600083018461065e565b9291505056fea264697066735822122054c0f127a2b3c91b6302fafd089294ee43327ce8f83beb6133cd7aea16691f5564736f6c634300080b0033",
  "immutableReferences": {},
  "source": "// SPDX-License-Identifier: MIT\npragma solidity >=0.4.23 <0.9.0;\n\nimport \"./ERC721.sol\";\nimport \"./SafeMath.sol\";\n\n\ncontract ERC721Token is ERC721 {\n    using SafeMath for uint256;\n\n\n   mapping (uint256=> address) private tokenOwner;\n\n   mapping (address => uint256[]) private ownedTokens;\n\n\n  function _mint(address _to,uint256 _tokenId) public{\n      require(_to != address(0));    \n      require(tokenOwner[_tokenId] == address(0));\n\n      tokenOwner[_tokenId] = _to;\n\n      ownedTokens[_to].push(_tokenId);\n\n      emit Transfer(address(0),_to,_tokenId);\n  }\n\n    function ownerOf(uint256 _tokenId) public override view returns (address){\n\n       address owner = tokenOwner[_tokenId]; \n       require(owner != address(0));\n       return owner;\n\n    }\n\nfunction balanceOf(address _owner) public override view returns(uint256){\n       return ownedTokens[_owner].length;\n}\n\nfunction tokensOf(address _owner) public view returns(uint256[] memory){\n    return ownedTokens[_owner];\n}\n\n}",
  "sourcePath": "D:\\Ethereum\\ERC721_SmartContract_Final_Tutorial\\contracts\\ERC721Token.sol",
  "compiler": {
    "name": "solc",
    "version": "0.8.11+commit.d7f03943.Emscripten.clang"
  },
  "schemaVersion": "3.4.4",
  "updatedAt": "2022-02-07T13:41:49.152Z",
  "devdoc": {
    "kind": "dev",
    "methods": {},
    "version": 1
  },
  "userdoc": {
    "kind": "user",
    "methods": {},
    "version": 1
  }
}